:020000040800F2
:1000000000280020391F0008CD0C0008D30C000880
:10001000D90C0008DF0C0008E50C00080000000007
:10002000000000000000000000000000EB0C0008D1
:10003000F70C000800000000030D00080F0D000879
:10004000811F0008811F0008811F0008811F000810
:10005000811F0008811F0008811F0008811F000800
:10006000811F0008811F0008811F0008811F0008F0
:10007000811F0008811F0008811F0008811F0008E0
:10008000811F0008811F0008811F0008811F0008D0
:10009000811F0008811F0008811F0008811F0008C0
:1000A000811F0008811F0008811F0008811F0008B0
:1000B0001D0D0008811F000800000000811F0008BE
:1000C000811F00080000000000000000811F0008E0
:1000D00000000000811F0008811F000800000000D0
:1000E000811F0008811F0008811F00080000000018
:1000F0000000000000000000000000000000000000
:0C01000000000000000000005FF808F1A3
:10010C0010B5054C237833B9044B13B10448AFF345
:10011C0000800123237010BDA0000020000000000F
:10012C00B035000808B5034B1BB103490348AFF3C6
:10013C00008008BD00000000A4000020B0350008BD
:10014C0080B582B000AF78607B685A687B689A6033
:10015C007B681A687B685A607B68DA697B681B8CE1
:10016C001946104602F0F2F903461A467B681A60EB
:10017C007B681A687B685B689A422DD17B685A68E9
:10018C007B689B689A4227D17B689A687B68DB689E
:10019C009A420ED07B689A687B68DA607B68DB6871
:1001AC00002B19D17B6819221A617B6801225A61D4
:1001BC0012E07B681B695A1E7B681A617B681B699D
:1001CC00002B09DC7B6819221A617B68DB68002B29
:1001DC0002D17B6801229A6100BF0837BD4680BD01
:1001EC0080B483B000AF78607B685B69012B04D16D
:1001FC007B6800225A61012300E0002318460C376B
:10020C00BD4680BC704780B483B000AF78607B681B
:10021C009B69012B04D17B6800229A61012300E0C9
:10022C00002318460C37BD4680BC704780B483B0A1
:10023C0000AF78607B6800225A617B6800229A616B
:10024C0000BF0C37BD4680BC7047000080B400AFC7
:10025C00074B00221A60064B00225A60044B002206
:10026C009A60034B0022DA6000BFBD4680BC704729
:10027C00C000002080B500AF00224FF480710B4805
:10028C0002F07BF900224FF40071084802F075F976
:10029C0000224FF48061054802F06FF900224FF400
:1002AC000061024802F069F900BF80BD00080140FE
:1002BC0080B500AF1B4B1B681B4A52F82330002B38
:1002CC0021D1184B1B68012B03D1184B1B68002B39
:1002DC000ED1144B1B68032B03D1144B9B68002BC2
:1002EC0006D1104B1B68114A52F82330002B0AD050
:1002FC000C4B1A680B4B1B680C4951F823301946F0
:10030C00104600F06BF8074B1B680133054A13606D
:10031C00044B1B68032B02DD024B00221A6000BF4A
:10032C0080BD00BFBC000020C00000206C0000207D
:10033C0080B400AF254B1B68254A82FB0312921038
:10034C00DB17D11A224B83FB01239A10CB17D21A3D
:10035C0013469B0013445B00CA1A1E4B1A601B4BBE
:10036C0019681B4B83FB01239A10CB17D21A134627
:10037C009B0013445B00CA1A164B5A60164B1B6841
:10038C00134A82FB03129210DB17D11A104B83FB1A
:10039C0001239A10CB17D21A13469B0013445B000F
:1003AC00CA1A0C4B9A600C4B1968094B83FB01233E
:1003BC009A10CB17D21A13469B0013445B00CA1A2F
:1003CC00044BDA6000BFBD4680BC7047D0000020F3
:1003DC00676666666C000020D400002080B582B091
:1003EC0000AF78603960FFF745FF386800F008F817
:1003FC00786800F0F1F900BF0837BD4680BD0000F9
:10040C0080B582B000AF78607B68092B00F2B481B4
:10041C0001A252F823F000BF4D0400089F0400080D
:10042C00F10400084305000895050008E7050008DD
:10043C00390600088B060008DD0600082F070008A7
:10044C0000220121CB4802F098F800220221C94871
:10045C0002F093F800220421C64802F08EF8002224
:10046C000821C44802F089F800221021C14802F08A
:10047C0084F800222021BF4802F07FF8012240219D
:10048C00BC4802F07AF801228021BA4802F075F8D3
:10049C009BE101220121B74802F06FF800220221F2
:1004AC00B44802F06AF800220421B24802F065F860
:1004BC0001220821AF4802F060F801221021AD485A
:1004CC0002F05BF801222021AA4802F056F8012222
:1004DC004021A84802F051F801228021A54802F0E1
:1004EC004CF872E100220121A24802F046F80022E9
:1004FC000221A04802F041F8012204219D4802F09B
:10050C003CF8002208219B4802F037F80022102109
:10051C00984802F032F801222021964802F02DF87A
:10052C0000224021934802F028F8012280219148B2
:10053C0002F023F849E1002201218E4802F01DF857
:10054C00002202218B4802F018F80022042189486D
:10055C0002F013F800220821864802F00EF801225E
:10056C001021844802F009F801222021814802F070
:10057C0004F8002240217F4801F0FFFF0122802176
:10058C007C4801F0FAFF20E101220121794801F0B9
:10059C00F4FF00220221774801F0EFFF0022042132
:1005AC00744801F0EAFF01220821724801F0E5FFCE
:1005BC00012210216F4801F0E0FF002220216D483C
:1005CC0001F0DBFF002240216A4801F0D6FF012236
:1005DC008021684801F0D1FFF7E000220121654835
:1005EC0001F0CBFF01220221624801F0C6FF00227C
:1005FC000421604801F0C1FF002208215D4801F090
:10060C00BCFF012210215B4801F0B7FF0022202122
:10061C00584801F0B2FF00224021564801F0ADFFCE
:10062C0001228021534801F0A8FFCEE000220121D5
:10063C00504801F0A2FF012202214E4801F09DFF1B
:10064C00002204214B4801F098FF00220821494860
:10065C0001F093FF00221021464801F08EFF00228A
:10066C002021444801F089FF00224021414801F03B
:10067C0084FF012280213F4801F07FFFA5E000228A
:10068C0001213C4801F079FF00220221394801F098
:10069C0074FF00220421374801F06FFF012208216A
:1006AC00344801F06AFF01221021324801F065FF45
:1006BC00012220212F4801F060FF012240212D480A
:1006CC0001F05BFF012280212A4801F056FF7CE0FB
:1006DC0000220121274801F050FF00220221254869
:1006EC0001F04BFF00220421224801F046FF0022BA
:1006FC000821204801F041FF002210211D4801F083
:10070C003CFF002220211B4801F037FF0022402132
:10071C00184801F032FF01228021164801F02DFF0C
:10072C0053E000220121134801F027FF002202218F
:10073C00104801F022FF002204210E4801F01DFF99
:10074C00002208210B4801F018FF01221021094852
:10075C0001F013FF00222021064801F00EFF0022B9
:10076C004021044801F009FF01228021014801F0D9
:10077C0004FF2AE00008014001220121154801F084
:10078C00FCFE01220221134801F0F7FE0122042194
:10079C00104801F0F2FE012208210E4801F0EDFE96
:1007AC00012210210B4801F0E8FE0122202109480A
:1007BC0001F0E3FE01224021064801F0DEFE012299
:1007CC008021044801F0D9FE00BF00BF0837BD46A8
:1007DC0080BD00BF0008014080B582B000AF7860DA
:1007EC007B68032B6ED801A252F823F0090800088D
:1007FC003B0800086D0800089F08000801224FF410
:10080C008071334801F0B9FE00224FF4007130487A
:10081C0001F0B3FE00224FF480612D4801F0ADFED3
:10082C0000224FF400612A4801F0A7FE4BE00022A1
:10083C004FF48071264801F0A0FE01224FF40071A4
:10084C00234801F09AFE00224FF48061204801F009
:10085C0094FE00224FF400611D4801F08EFE32E040
:10086C0000224FF480711A4801F087FE00224FF4E9
:10087C000071174801F081FE01224FF48061144889
:10088C0001F07BFE00224FF40061114801F075FE6F
:10089C0019E000224FF480710D4801F06EFE002229
:1008AC004FF400710A4801F068FE00224FF4806199
:1008BC00074801F062FE01224FF40061044801F088
:1008CC005CFE00E000BF00BF0837BD4680BD00BF26
:1008DC000008014080B500AF01F04EFB00F040F87D
:1008EC0000F0C6F800F078F8184802F0A3FA4FF4BC
:1008FC007A71072000F030F91421002000F02CF957
:10090C00072000F071F90346002B09D04FF48051F9
:10091C000F4801F04AFE4FF47A71072000F01CF9E1
:10092C00002000F061F90346002B0CD00948FFF7BA
:10093C0007FC0948FFF704FC0848FFF701FC1421E9
:10094C00002000F009F900F0F3F9D9E7DC000020F1
:10095C000008014000000020240000204800002076
:10096C0080B590B000AF07F118032822002118467B
:10097C0002F010FE3B1D00221A605A609A60DA6089
:10098C001A610223BB610123BB621023FB620023AB
:10099C007B6307F11803184601F020FE0346002B79
:1009AC0001D000F0D3F80F237B600023BB60002341
:1009BC00FB6000233B6100237B613B1D002118463B
:1009CC0002F08CF80346002B01D000F0BFF800BFFA
:1009DC004037BD4680BD000080B586B000AF07F142
:1009EC00080300221A605A609A60DA603B460022C3
:1009FC001A605A601D4B4FF080421A601B4B40F23C
:100A0C001F325A60194B00229A60184B0922DA6087
:100A1C00164B00221A61154B00229A61134802F002
:100A2C00B9F90346002B01D000F090F84FF4805335
:100A3C00BB6007F1080319460C4802F037FB03466C
:100A4C00002B01D000F082F800233B6000237B6078
:100A5C003B461946054802F00FFD0346002B01D01A
:100A6C0000F074F800BF1837BD4680BDDC000020D4
:100A7C0080B586B000AF07F1080300221A605A60F7
:100A8C009A60DA60294B9B69284A43F0040393610E
:100A9C00264B9B6903F004037B607B68234B9B69AB
:100AAC00224A43F008039361204B9B6903F008032F
:100ABC003B603B68002241F6FF711D4801F05DFD73
:100ACC0000224FF47C711B4801F057FD41F6FF7377
:100ADC00BB600123FB6000233B6102237B6107F1B8
:100AEC0008031946124801F0B7FB4FF4E043BB6012
:100AFC000023FB6000233B6107F1080319460D48F6
:100B0C0001F0AAFB4FF47C73BB600123FB60002354
:100B1C003B6102237B6107F108031946054801F08C
:100B2C009BFB00BF1837BD4680BD00BF00100240C4
:100B3C0000080140000C014080B582B000AF786025
:100B4C0000F022F800BF0837BD4680BD80B400AF6E
:100B5C0072B600BFFEE7000080B483B000AF7860CF
:100B6C00396008497B683A6841F83320054A7B684C
:100B7C00DB00134400225A6000BF0C37BD4680BC1A
:100B8C00704700BF2401002080B483B000AF002365
:100B9C007B601DE0134A7B6852F83330002B14DD68
:100BAC00104A7B6852F833305A1E0E497B6841F864
:100BBC0033200C4A7B6852F83330002B05DC094A91
:100BCC007B68DB00134401225A607B6801337B6035
:100BDC007B68092BDEDD00BF00BF0C37BD4680BC37
:100BEC00704700BF2401002080B483B000AF786050
:100BFC00074A7B68DB0013445B68002B01D00123A0
:100C0C0000E0002318460C37BD4680BC704700BF7F
:100C1C002401002080B485B000AF154B9B69144AA9
:100C2C0043F001039361124B9B6903F00103BB601A
:100C3C00BB680F4BDB690E4A43F08053D3610C4BFE
:100C4C00DB6903F080537B607B680A4B5B68FB605D
:100C5C00FB6823F0E063FB60FB6843F08063FB60A0
:100C6C00044AFB68536000BF1437BD4680BC704714
:100C7C00001002400000014080B584B000AF7860E5
:100C8C007B681B68B3F1804F13D10C4BDB690B4AAB
:100C9C0043F00103D361094BDB6903F00103FB60F3
:100CAC00FB68002200211C2001F09FFA1C2001F09F
:100CBC00B8FA00BF1037BD4680BD00BF001002401F
:100CCC0080B400AFFEE780B400AFFEE780B400AFA5
:100CDC00FEE780B400AFFEE780B400AFFEE780B45F
:100CEC0000AF00BFBD4680BC704780B400AF00BFF2
:100CFC00BD4680BC704780B400AF00BFBD4680BC11
:100D0C00704780B500AF01F07DF900BF80BD0000D9
:100D1C0080B500AF024802F0D9F800BF80BD00BF1B
:100D2C00DC00002080B400AF00BFBD4680BC704723
:100D3C0080B500AFC34B1B780F2B00F2EF8101A2E3
:100D4C0052F823F0910D00089D0D0008030E0008C9
:100D5C00510E0008B70E0008050F00083B0F0008E5
:100D6C00590F00088F0F0008AD0F0008E30F0008A3
:100D7C001910000871100008A5100008D9100008FF
:100D8C000D11000800F004FBAE4B01221A70E4E1D7
:100D9C0000F038FB0120FFF727FF0346002B05D09E
:100DAC0000F05EFBA74B02221A70B9E1A648FFF7D0
:100DBC0017FA0346002B05D000F0DEFCA14B0922EC
:100DCC001A70ADE1A148FFF70BFA0346002B05D0D2
:100DDC0001F080F89B4B0F221A70A1E19C48FFF7A1
:100DEC00FFF90346002B00F09B8100F065FC954B4E
:100DFC0005221A7094E100F067FB0120FFF7F4FE66
:100E0C000346002B05D000F08DFB8E4B03221A708D
:100E1C0088E18D48FFF7E4F90346002B05D000F07C
:100E2C00ABFC884B09221A707CE18848FFF7D8F993
:100E3C000346002B00F0768101F04CF8814B0F2219
:100E4C001A706FE100F0A8FB0120FFF7CDFE0346FE
:100E5C00002B05D000F0CEFB7A4B04221A7063E114
:100E6C007948FFF7BDF90346002B05D000F084FC50
:100E7C00744B09221A7057E17448FFF7B1F9034615
:100E8C00002B05D001F026F86E4B0F221A704BE1A7
:100E9C006F48FFF7A5F90346002B00F0458100F0E1
:100EAC003DFC684B07221A703EE100F0D7FB012095
:100EBC00FFF79AFE0346002B05D000F069FA614B50
:100ECC0001221A7032E16048FFF78AF90346002BC1
:100EDC0005D000F051FC5B4B09221A7026E15B48EF
:100EEC00FFF77EF90346002B00F0208100F0F2FFA3
:100EFC00544B0F221A7019E100F0F0FB5348FFF726
:100F0C006FF90346002B05D000F0F0FB4D4B062289
:100F1C001A700DE14E48FFF763F90346002B00F001
:100F2C00078100F035FA474B01221A7000E100F0FE
:100F3C00EDFB0120FFF758FE0346002B00F0FA8072
:100F4C0000F0ECFB3F4B07221A70F3E000F0F4FBCF
:100F5C003E48FFF745F90346002B05D000F0F4FBA3
:100F6C00384B08221A70E7E03948FFF739F9034685
:100F7C00002B00F0E18000F0D5FA324B03221A70FE
:100F8C00DAE000F0F1FB0120FFF72EFE0346002B08
:100F9C0000F0D48000F090FB2A4B05221A70CDE0B3
:100FAC0000F014FC2848FFF71BF90346002B05D072
:100FBC0000F01EFD234B0B221A70C1E0254B1A6862
:100FCC00254B1B689A4200F0BB8000F053FC1D4B74
:100FDC000A221A70B4E000F07BFC1B48FFF700F902
:100FEC000346002B05D000F003FD164B0B221A70A4
:100FFC00A8E0184B1A68184B1B689A4240F0A28064
:10100C0000F0BAFB0F4B09221A709BE000F01AFD9E
:10101C000D48FFF7E5F80346002B05D000F024FE41
:10102C00084B0D221A708FE00C4B1A680C4B1B6886
:10103C009A4200F0898000F059FD024B0C221A7084
:10104C0082E000BFD8000020000000202400002017
:10105C0048000020880000207C0000208C0000202C
:10106C008000002000F070FD3D48FFF7B9F8034602
:10107C00002B05D000F0F8FD3A4B0D221A7065E0FC
:10108C00394B1A68394B1B689A425FD100F0B0FC9F
:10109C00344B0B221A7059E000F010FE3048FFF769
:1010AC009FF80346002B05D000F072F92D4B01225E
:1010BC001A704DE02E4B1A682E4B1B689A4247D083
:1010CC0000F050FE274B0E221A7041E000F078FE23
:1010DC002348FFF785F80346002B05D000F058F99C
:1010EC00204B01221A7035E0214B1A68214B1B68EA
:1010FC009A422FD100F0B8FD1A4B0D221A7029E03C
:10110C0000F0FAFE1C48FFF76BF80346002B23D0C7
:10111C0000F03EF9134B01221A701DE000BF1CE0D9
:10112C0000BF1AE000BF18E000BF16E000BF14E0DB
:10113C0000BF12E000BF10E000BF0EE000BF0CE0EB
:10114C0000BF0AE000BF08E000BF06E000BF04E0FB
:10115C0000BF02E000BF00E000BF00BF80BD00BFC9
:10116C0000000020D80000208C000020800000200F
:10117C0090000020840000202400002080B500AFE7
:10118C00002210210F4801F0F8F9012220210D480E
:10119C0001F0F3F9012240210A4801F0EEF9002296
:1011AC008021084801F0E9F901224FF480710548CB
:1011BC0001F0E3F901224FF40071024801F0DDF96E
:1011CC0000BF80BD000C014080B500AF0122102192
:1011DC000F4801F0D2F9002220210D4801F0CDF981
:1011EC00012240210A4801F0C8F901228021084857
:1011FC0001F0C3F900224FF48071054801F0BDF9EC
:10120C0001224FF40071024801F0B7F900BF80BD14
:10121C00000C014080B500AF012210210F4801F0F5
:10122C00ACF9012220210D4801F0A7F90022402140
:10123C000A4801F0A2F901228021084801F09DF929
:10124C0001224FF48071054801F097F900224FF408
:10125C000071024801F091F900BF80BD000C014003
:10126C0080B500AF002210210F4801F086F9012251
:10127C0020210D4801F081F9012240210A4801F09A
:10128C007CF901228021084801F077F901224FF402
:10129C008071054801F071F900224FF40071024889
:1012AC0001F06BF900BF80BD000C014080B500AFB0
:1012BC00002210210F4801F060F9012220210D4875
:1012CC0001F05BF9012240210A4801F056F9012294
:1012DC008021084801F051F900224FF48071054833
:1012EC0001F04BF901224FF40071024801F045F96D
:1012FC0000BF80BD000C014080B500AF0122102161
:10130C000F4801F03AF9012220210D4801F035F97E
:10131C00002240210A4801F030F9002280210848BF
:10132C0001F02BF901224FF48071054801F025F9E9
:10133C0001224FF40071024801F01FF900BF80BD7B
:10134C00000C014080B500AF012210210F4801F0C4
:10135C0014F9002220210D4801F00FF9012240213F
:10136C000A4801F00AF900228021084801F005F929
:10137C0001224FF48071054801F0FFF801224FF46F
:10138C000071024801F0F9F800BF80BD000C01406B
:10139C0080B500AF144B1B684FF47A7202FB03F359
:1013AC0019460120FFF7D8FB1048FEF73FFF104805
:1013BC00FEF73CFF0F48FEF739FFFEF747FF05210C
:1013CC000220FFF7C9FB4FF47A710420FFF7C4FB2E
:1013DC00094B1B68094A1360034B1B68084A1360CE
:1013EC00FEF7A6FF00BF80BD840000200000002097
:1013FC0024000020480000207C000020D0000020A9
:10140C00D400002080B500AFFFF72AFF0220FFF7C1
:10141C00EBFB0346002B05D0FEF74AFF052102200B
:10142C00FFF79AFB0420FFF7DFFB0346002B10D0DD
:10143C00094B1B68013B084A1360084B1B68013BB6
:10144C00064A1360FEF774FF4FF47A710420FFF71D
:10145C0083FB00BF80BD00BFD0000020D400002063
:10146C0080B500AF134B1B684FF47A7202FB03F389
:10147C0019460120FFF770FB0F48FEF7D7FE0F4807
:10148C00FEF7D4FEFEF7E2FE05210220FFF764FB17
:10149C004FF47A710420FFF75FFB064B1B68084A78
:1014AC001360044B1B68074A1360FEF741FF00BF33
:1014BC0080BD00BF80000020000000202400002020
:1014CC00D0000020D400002080B500AFFFF7EEFE66
:1014DC000220FFF789FB0346002B05D0FEF7E8FE40
:1014EC0005210220FFF738FB0420FFF77DFB0346A4
:1014FC00002B10D0094B1B68013B084A1360084BAA
:10150C001B68013B064A1360FEF712FF4FF47A7119
:10151C000420FFF721FB00BF80BD00BFD0000020DE
:10152C00D400002080B500AF144B1B684FF47A72C6
:10153C0002FB03F319460120FFF70EFB1048FEF7E0
:10154C0075FE1048FEF772FE0F48FEF76FFEFEF7B1
:10155C007DFE05210220FFF7FFFA4FF47A7104207B
:10156C00FFF7FAFA054B1B68084A1360084B1B6817
:10157C00084A1360FEF7DCFE00BF80BD840000202B
:10158C00000000202400002048000020D000002093
:10159C007C000020D400002080B500AFFFF7ACFE2B
:1015AC000220FFF721FB0346002B05D0FEF780FE3F
:1015BC0005210220FFF7D0FA0420FFF715FB0346A4
:1015CC00002B10D0094B1B68013B084A1360084BD9
:1015DC001B68013B064A1360FEF7AAFE4FF47A71B2
:1015EC000420FFF7B9FA00BF80BD00BFD000002077
:1015FC00D400002080B500AF134B1B684FF47A72F7
:10160C0002FB03F319460120FFF7A6FA0F48FEF779
:10161C000DFE0F48FEF70AFEFEF718FE052102200C
:10162C00FFF79AFA4FF47A710420FFF795FA064BFC
:10163C001B68084A1360044B1B68074A1360FEF7CB
:10164C0077FE00BF80BD00BF80000020000000209E
:10165C0024000020D0000020D400002080B500AF72
:10166C00FFF770FE0220FFF7BFFA0346002B05D0F0
:10167C00FEF71EFE05210220FFF76EFA0420FFF78D
:10168C00B3FA0346002B10D0094B1B68013B084AE8
:10169C001360084B1B68013B064A1360FEF748FEBB
:1016AC004FF47A710420FFF757FA00BF80BD00BFDA
:1016BC00D0000020D400002080B500AF0548FEF714
:1016CC00B5FD0548FEF7B2FD05210220FFF744FAEF
:1016DC0000BF80BD240000204800002080B500AF72
:1016EC00FEF7C8FDFFF7BCFD00BF80BD80B500AFA5
:1016FC00054B1B684FF47A7202FB03F31946012069
:10170C00FFF72AFA00BF80BD8000002080B500AF33
:10171C00FEF7B0FDFFF7CAFD00BF80BD80B500AF7E
:10172C000348FEF783FD0348FEF780FD00BF80BD34
:10173C00240000204800002080B500AFFEF79AFD81
:10174C00FFF7DAFD00BF80BD80B500AF054B1B680D
:10175C004FF47A7202FB03F319460120FFF7FCF9F0
:10176C0000BF80BD8000002080B500AFFEF782FD79
:10177C00FFF7E8FD00BF80BD80B500AF0E48FEF757
:10178C0055FD0E4B1B680E4A1360FFF7F7FCFA2150
:10179C000620FFF7E1F9FEF759FD094B1B68094AD2
:1017AC001360094B09221A60FEF7C2FD05210220C5
:1017BC00FFF7D2F900BF80BD000000207C000020A4
:1017CC0088000020D0000020D400002080B500AF9D
:1017DC002348FEF705FD0346002B04D0214B1B6864
:1017EC000133204A13601E48FEF70DFD0346002B03
:1017FC0004D01C4B1B6805331A4A1360194B1B6829
:10180C00632B02DD174B01221A60164B1B68164A1C
:10181C001360144B1B68154A1360FEF789FD0620F4
:10182C00FFF7E2F90346002B0BD01021104800F013
:10183C00BCFE80210E4800F0B8FEFA210620FFF70E
:10184C008BF90220FFF7D0F90346002B05D0FEF7E9
:10185C002FFD05210220FFF77FF900BF80BD00BFDF
:10186C002400002088000020D0000020D40000209C
:10187C00000C014080B500AF1048FEF7D7FC1048B3
:10188C00FEF7D4FCFFF77AFCFA210620FFF764F987
:10189C00FEF7DCFC0B4B1B680B4A13600B4B0A224C
:1018AC001A60FEF745FD05210220FFF755F9FA21D4
:1018BC000320FFF751F900BF80BD00BF00000020DE
:1018CC004800002088000020D0000020D400002018
:1018DC0080B500AF3C48FEF783FC0346002B04D0D8
:1018EC003A4B1B680133394A13603748FEF78BFCBF
:1018FC000346002B04D0354B1B680533334A136069
:10190C00324B1B68632B02DD304B01221A603048CE
:10191C00FEF766FC0346002B10D02C4B1A682D4B9F
:10192C001B689A420ADD294B1B682B4A13602A4B11
:10193C001A68284B1B68D31A284A1360234B1B6860
:10194C00274A1360264B1B68264A1360FEF7F0FCEF
:10195C000620FFF749F90346002B0BD01021224833
:10196C0000F023FE8021204800F01FFEFA21062003
:10197C00FFF7F2F80220FFF737F90346002B05D0EA
:10198C00FEF796FC05210220FFF7E6F80320FFF78F
:10199C002BF90346002B14D0144B1B68002B06D1DB
:1019AC00124B01221A60114B01225A6005E00F4BB9
:1019BC0000221A600D4B00225A60FA210320FFF717
:1019CC00CBF800BF80BD00BF2400002088000020A1
:1019DC0048000020800000207C00002084000020B3
:1019EC00D0000020D4000020000C0140C0000020DA
:1019FC0080B500AF0E48FEF719FC0E4B1B680E4A63
:101A0C001360FFF7E1FBFA210620FFF7A5F8FEF7BC
:101A1C001DFC094B1B68094A1360094B0B221A6009
:101A2C00FEF786FC05210220FFF796F800BF80BD6B
:101A3C0000000020800000208C000020D00000203E
:101A4C00D400002080B500AF2348FEF7C9FB034645
:101A5C00002B04D0214B1B680133204A13601E4815
:101A6C00FEF7D1FB0346002B04D01C4B1B6805333F
:101A7C001A4A1360194B1B68632B02DD174B0122AA
:101A8C001A60164B1B68164A1360144B1B68154AD8
:101A9C001360FEF74DFC0620FFF7A6F80346002B5B
:101AAC000CD02021104800F080FD4FF480710E48BE
:101ABC0000F07BFDFA210620FFF74EF80220FFF71D
:101ACC0093F80346002B05D0FEF7F2FB052102200C
:101ADC00FFF742F800BF80BD240000208C000020DE
:101AEC00D0000020D4000020000C014080B500AFD5
:101AFC001048FEF79BFB1048FEF798FBFFF764FBC2
:101B0C00FA210620FFF728F8FEF7A0FB0B4B1B6809
:101B1C000B4A13600B4B0C221A60FEF709FC0521D3
:101B2C000220FFF719F8FA210320FFF715F800BF80
:101B3C0080BD00BF00000020480000208C00002069
:101B4C00D0000020D400002080B500AF3C48FEF748
:101B5C0047FB0346002B04D03A4B1B680133394A30
:101B6C0013603748FEF74FFB0346002B04D0354B70
:101B7C001B680533334A1360324B1B68632B02DD41
:101B8C00304B01221A603048FEF72AFB0346002B2B
:101B9C0010D02E4B1A682B4B1B689A420ADD294B2E
:101BAC001B682B4A1360294B1A68294B1B68D31AE4
:101BBC00284A1360234B1B68274A1360264B1B686B
:101BCC00264A1360FEF7B4FB0620FFF70DF8034618
:101BDC00002B0CD02021224800F0E7FC4FF4807140
:101BEC001F4800F0E2FCFA210620FEF7B5FF0220A8
:101BFC00FEF7FAFF0346002B05D0FEF759FB052133
:101C0C000220FEF7A9FF0320FEF7EEFF0346002B90
:101C1C0014D0144B1B68002B06D1124B01221A60F6
:101C2C00104B01225A6005E00E4B00221A600D4B3E
:101C3C0000225A60FA210320FEF78EFF00BF80BD00
:101C4C00240000208C000020480000207C00002094
:101C5C008000002084000020D0000020D400002050
:101C6C00000C0140C000002080B500AF0E48FEF70C
:101C7C00DDFA0E4B1B680E4A1360FFF7CBFAFA2104
:101C8C000620FEF769FFFEF7E1FA094B1B68094ACB
:101C9C001360094B0D221A60FEF74AFB0521022046
:101CAC00FEF75AFF00BF80BD00000020840000201A
:101CBC0090000020D0000020D400002080B500AFA0
:101CCC002348FEF78DFA0346002B04D0214B1B68EA
:101CDC000133204A13601E48FEF795FA0346002B89
:101CEC0004D01C4B1B6805331A4A1360194B1B6834
:101CFC00632B02DD174B01221A60164B1B68164A28
:101D0C001360144B1B68154A1360FEF711FB062079
:101D1C00FEF76AFF0346002B0CD04021104800F060
:101D2C0044FC4FF400710E4800F03FFCFA210620F1
:101D3C00FEF712FF0220FEF757FF0346002B05D0DB
:101D4C00FEF7B6FA05210220FEF706FF00BF80BDA4
:101D5C002400002090000020D0000020D40000209F
:101D6C00000C014080B500AF1048FEF75FFA104838
:101D7C00FEF75CFAFFF74EFAFA210620FEF7ECFEAE
:101D8C00FEF764FA0B4B1B680B4A13600B4B0E22CD
:101D9C001A60FEF7CDFA05210220FEF7DDFEFA21CE
:101DAC000320FEF7D9FE00BF80BD00BF000000205D
:101DBC004800002090000020D0000020D40000201B
:101DCC0080B500AF3948FEF70BFA0346002B04D060
:101DDC00374B1B680133364A13603448FEF713FA4D
:101DEC000346002B04D0324B1B680533304A13607A
:101DFC002F4B1B68632B02DD2D4B01221A602D48E3
:101E0C00FEF7EEF90346002B0AD0294B1B682A4A31
:101E1C001360294B1A68294B1B681344284A13601A
:101E2C00234B1B68274A1360264B1B68264A1360FA
:101E3C00FEF77EFA0620FEF7D7FE0346002B0CD0E9
:101E4C004021224800F0B1FB4FF400711F4800F014
:101E5C00ACFBFA210620FEF77FFE0220FEF7C4FE43
:101E6C000346002B05D0FEF723FA05210220FEF7CE
:101E7C0073FE0320FEF7B8FE0346002B14D0144B60
:101E8C001B68002B06D1124B01221A60104B012249
:101E9C005A6005E00E4B00221A600D4B00225A606E
:101EAC00FA210320FEF758FE00BF80BD240000205D
:101EBC0090000020480000208400002080000020BA
:101ECC007C000020D0000020D4000020000C014039
:101EDC00C000002080B500AF0648FEF7A7F9FFF759
:101EEC0073F9FEF7C7F94FF4FA710520FEF734FECB
:101EFC0000BF80BD2400002080B500AF0520FEF798
:101F0C0073FE0346002B0DD02021074800F04DFB3B
:101F1C004FF48071044800F048FB4FF4FA7105202F
:101F2C00FEF71AFE00BF80BD000C0140FEF7FAFE62
:101F3C000B480C490C4A002302E0D458C45004331B
:101F4C00C4188C42F9D3094A094C002301E01360F0
:101F5C000432A242FBD301F0F9FAFEF7BBFC704746
:101F6C0000000020A0000020F4350008A000002094
:101F7C0078010020FEE7000080B500AF084B1B681D
:101F8C00074A43F010031360032000F023F90F20DD
:101F9C0000F008F8FEF73EFE0023184680BD00BF97
:101FAC000020024080B582B000AF7860124B1A68F6
:101FBC00124B1B7819464FF47A73B3FBF1F3B2FB57
:101FCC00F3F3184600F03BF90346002B01D0012334
:101FDC000EE07B680F2B0AD8002279684FF0FF3097
:101FEC0000F003F9064A7B681360002300E001232C
:101FFC0018460837BD4680BD940000209C00002088
:10200C009800002080B400AF054B1B781A46054B96
:10201C001B681344034A136000BFBD4680BC704765
:10202C009C0000207401002080B400AF024B1B68A0
:10203C001846BD4680BC70477401002080B485B042
:10204C0000AF78607B6803F00703FB600C4BDB6828
:10205C00BB60BA684FF6FF031340BB60FB681A0203
:10206C00BB68134343F0BF6343F40033BB60044AC3
:10207C00BB68D36000BF1437BD4680BC704700BF3F
:10208C0000ED00E080B400AF044BDB681B0A03F0EA
:10209C0007031846BD4680BC704700BF00ED00E04A
:1020AC0080B483B000AF0346FB7197F90730002B67
:1020BC000BDBFB7903F01F02064997F907305B092C
:1020CC00012000FA02F241F8232000BF0C37BD4674
:1020DC0080BC704700E100E080B483B000AF0346E1
:1020EC003960FB7197F90730002B0ADB3B68DAB2D9
:1020FC000C4997F907301201D2B20B4483F8002334
:10210C000AE03B68DAB20849FB7903F00F03043BA1
:10211C001201D2B20B441A7600BF0C37BD4680BCFC
:10212C00704700BF00E100E000ED00E080B489B032
:10213C0000AFF860B9607A60FB6803F00703FB61DD
:10214C00FB69C3F10703042B28BF0423BB61FB69A4
:10215C000433062B02D9FB69033B00E000237B61AF
:10216C004FF0FF32BB6902FA03F3DA43BB681A4043
:10217C007B699A404FF0FF317B6901FA03F3D94335
:10218C007B680B40134318462437BD4680BC704710
:10219C0080B582B000AF78607B68013BB3F1807F83
:1021AC0001D301230FE00A4A7B68013B53600F21E6
:1021BC004FF0FF30FFF790FF054B00229A60044B65
:1021CC0007221A60002318460837BD4680BD00BFA1
:1021DC0010E000E080B582B000AF78607868FFF75F
:1021EC002DFF00BF0837BD4680BD80B586B000AF5F
:1021FC000346B9607A60FB7300237B61FFF742FFF3
:10220C0078617A68B9687869FFF790FF024697F9A8
:10221C000F3011461846FFF75FFF00BF1837BD4659
:10222C0080BD80B582B000AF0346FB7197F90730D3
:10223C001846FFF735FF00BF0837BD4680BD80B597
:10224C0082B000AF78607868FFF7A2FF03461846AB
:10225C000837BD4680BD000080B48BB000AF7860FD
:10226C00396000237B6200233B6248E101227B6AD8
:10227C0002FA03F3FB613B681B68FA691340BB610C
:10228C00BA69FB699A4240F037813B685B68A34AA4
:10229C0093425ED0A14A934275D8A14A934258D03A
:1022AC009F4A93426FD89F4A934252D09D4A934281
:1022BC0069D89D4A93424CD09B4A934263D89B4A1F
:1022CC00934246D0994A93425DD8122B2AD8122BAE
:1022DC0059D801A252F823F05F23000839230008D3
:1022EC004B2300088D230008932300089323000838
:1022FC0093230008932300089323000893230008DA
:10230C0093230008932300089323000893230008C9
:10231C00932300089323000893230008412300080B
:10232C0055230008824A934213D02CE03B68DB68AB
:10233C003B6229E03B68DB6804333B6224E03B688A
:10234C00DB6808333B621FE03B68DB680C333B62A5
:10235C001AE03B689B68002B02D104233B6213E01C
:10236C003B689B68012B05D108233B627B68FA69AB
:10237C001A6109E008233B627B68FA695A6103E041
:10238C0000233B6200E000BFBB69FF2B01D87B68D8
:10239C0001E07B6804337B61BB69FF2B02D87B6A4D
:1023AC009B0002E07B6A083B9B003B617B691A68DF
:1023BC000F213B6901FA03F3DB431A40396A3B698D
:1023CC0001FA03F31A437B691A603B685B6803F0FC
:1023DC008053002B00F09080564B9B69554A43F07C
:1023EC0001039361534B9B6903F00103BB60BB6812
:1023FC00514A7B6A9B08023352F82330FB607B6A9C
:10240C0003F003039B000F2202FA03F3DB43FA6889
:10241C001340FB607B68494A93420DD07B68484A65
:10242C00934207D07B68474A934201D1022304E0D0
:10243C00032302E0012300E000237A6A02F0030286
:10244C0092009340FA681343FB603B497B6A9B08FC
:10245C000233FA6841F823203B685B6803F480136D
:10246C00002B06D0384B9A683749BB6913438B60F5
:10247C0006E0354B9A68BB69DB43334913408B60EC
:10248C003B685B6803F40013002B06D02E4BDA6814
:10249C002D49BB691343CB6006E02B4BDA68BB6953
:1024AC00DB4329491340CB603B685B6803F4003382
:1024BC00002B06D0244B5A682349BB6913434B604D
:1024CC0006E0214B5A68BB69DB431F4913404B6044
:1024DC003B685B6803F48033002B06D01A4B1A68F8
:1024EC001949BB6913430B6006E0174B1A68BB69AB
:1024FC00DB43154913400B607B6A01337B623B68FD
:10250C001A687B6A22FA03F3002B7FF4AFAE00BF8C
:10251C0000BF2C37BD4680BC704700BF0000321096
:10252C0000003110000022100000211000001210D9
:10253C000000111000100240000001400008014092
:10254C00000C0140001001400004014080B485B033
:10255C0000AF78600B467B807B689A687B88134061
:10256C00002B02D00123FB7301E00023FB73FB7BE8
:10257C0018461437BD4680BC704780B483B000AF9A
:10258C0078600B467B8013467B707B78002B03D0E6
:10259C007A887B681A6103E07B881A047B681A616D
:1025AC0000BF0C37BD4680BC704780B485B000AF0F
:1025BC0078600B467B807B68DB68FB607A88FB6805
:1025CC0013401A04FB68D9437B880B401A437B6881
:1025DC001A6100BF1437BD4680BC704780B586B009
:1025EC0000AF78607B68002B01D101236CE27B6823
:1025FC001B6803F00103002B00F08780924B5B6893
:10260C0003F00C03042B0CD08F4B5B6803F00C0312
:10261C00082B12D18C4B5B6803F48033B3F5803FED
:10262C000BD1894B1B6803F40033002B6CD07B68F7
:10263C005B68002B68D1012346E27B685B68B3F5CD
:10264C00803F06D1804B1B687F4A43F48033136074
:10265C002EE07B685B68002B0CD17B4B1B687A4AA5
:10266C0023F480331360784B1B68774A23F4802360
:10267C0013601DE07B685B68B3F5A02F0CD1724B27
:10268C001B68714A43F4802313606F4B1B686E4ABE
:10269C0043F4803313600BE06B4B1B686A4A23F4E2
:1026AC0080331360684B1B68674A23F480231360E4
:1026BC007B685B68002B13D0FFF7B6FC386108E031
:1026CC00FFF7B2FC02463B69D31A642B01D90323F2
:1026DC00FAE15D4B1B6803F40033002BF0D014E0DF
:1026EC00FFF7A2FC386108E0FFF79EFC02463B694D
:1026FC00D31A642B01D90323E6E1534B1B6803F473
:10270C000033002BF0D100E000BF7B681B6803F0A6
:10271C000203002B63D04C4B5B6803F00C03002BC3
:10272C000BD0494B5B6803F00C03082B1CD1464BB8
:10273C005B6803F48033002B16D1434B1B6803F00A
:10274C000203002B05D07B681B69012B01D00123F0
:10275C00BAE13D4B1B6823F0F8027B685B69DB0038
:10276C00394913430B603AE07B681B69002B20D07E
:10277C00364B01221A60FFF757FC386108E0FFF76F
:10278C0053FC02463B69D31A022B01D903239BE16C
:10279C002D4B1B6803F00203002BF0D02A4B1B6857
:1027AC0023F0F8027B685B69DB00274913430B605D
:1027BC0015E0264B00221A60FFF736FC386108E062
:1027CC00FFF732FC02463B69D31A022B01D90323D3
:1027DC007AE11D4B1B6803F00203002BF0D17B68E0
:1027EC001B6803F00803002B3AD07B689B69002B15
:1027FC0019D0174B01221A60FFF716FC386108E05C
:10280C00FFF712FC02463B69D31A022B01D90323B2
:10281C005AE10D4B5B6A03F00203002BF0D0012050
:10282C0000F09AFA1CE00A4B00221A60FFF7FCFB3E
:10283C0038610FE0FFF7F8FB02463B69D31A022B15
:10284C0008D9032340E100BF0010024000004242BF
:10285C00800442429E4B5B6A03F00203002BE9D1D9
:10286C007B681B6803F00403002B00F0A680002398
:10287C00FB75974BDB6903F08053002B0DD1944B08
:10288C00DB69934A43F08053D361914BDB6903F0CE
:10289C008053BB60BB680123FB758E4B1B6803F434
:1028AC008073002B18D18B4B1B688A4A43F48073BE
:1028BC001360FFF7B9FB386108E0FFF7B5FB024680
:1028CC003B69D31A642B01D90323FDE0814B1B68B0
:1028DC0003F48073002BF0D07B68DB68012B06D1EE
:1028EC007B4B1B6A7A4A43F0010313622DE07B6831
:1028FC00DB68002B0CD1764B1B6A754A23F0010365
:10290C001362734B1B6A724A23F0040313621CE0BC
:10291C007B68DB68052B0CD16D4B1B6A6C4A43F052
:10292C00040313626A4B1B6A694A43F00103136286
:10293C000BE0674B1B6A664A23F001031362644B7E
:10294C001B6A634A23F0040313627B68DB68002B69
:10295C0015D0FFF769FB38610AE0FFF765FB02460B
:10296C003B69D31A41F28832934201D90323ABE07D
:10297C00574B1B6A03F00203002BEED014E0FFF759
:10298C0053FB38610AE0FFF74FFB02463B69D31A51
:10299C0041F28832934201D9032395E04C4B1B6AD8
:1029AC0003F00203002BEED1FB7D012B05D1484B2C
:1029BC00DB69474A23F08053D3617B68DB69002BCA
:1029CC0000F08180424B5B6803F00C03082B61D054
:1029DC007B68DB69022B46D13F4B00221A60FFF764
:1029EC0023FB386108E0FFF71FFB02463B69D31A53
:1029FC00022B01D9032367E0354B1B6803F00073EE
:102A0C00002BF0D17B681B6AB3F5803F08D1304BAB
:102A1C005B6823F400327B689B682D4913434B6041
:102A2C002B4B5B6823F474127B68196A7B685B6AB6
:102A3C000B43274913434B60274B01221A60FFF7C6
:102A4C00F3FA386108E0FFF7EFFA02463B69D31A54
:102A5C00022B01D9032337E01D4B1B6803F00073D5
:102A6C00002BF0D02FE01C4B00221A60FFF7DCFA91
:102A7C00386108E0FFF7D8FA02463B69D31A022BFB
:102A8C0001D9032320E0124B1B6803F00073002BC9
:102A9C00F0D118E07B68DB69012B01D1012313E035
:102AAC000B4B5B68FB60FB6803F480327B681B6A32
:102ABC009A4206D1FB6803F470127B685B6A9A42F7
:102ACC0001D0012300E0002318461837BD4680BD15
:102ADC0000100240007000406000424280B584B09B
:102AEC0000AF786039607B68002B01D10123D0E006
:102AFC006A4B1B6803F007033A689A4210D9674B7C
:102B0C001B6823F0070265493B6813430B60634B5A
:102B1C001B6803F007033A689A4201D00123B8E01E
:102B2C007B681B6803F00203002B20D07B681B68BA
:102B3C0003F00403002B05D0594B5B68584A43F44F
:102B4C00E06353607B681B6803F00803002B05D01F
:102B5C00534B5B68524A43F460535360504B5B6871
:102B6C0023F0F0027B689B684D4913434B607B68F4
:102B7C001B6803F00103002B40D07B685B68012BC2
:102B8C0007D1474B1B6803F40033002B15D10123ED
:102B9C007FE07B685B68022B07D1414B1B6803F01D
:102BAC000073002B09D1012373E03D4B1B6803F02C
:102BBC000203002B01D101236BE0394B5B6823F03E
:102BCC0003027B685B68364913434B60FFF72CFAB2
:102BDC00F8600AE0FFF728FA0246FB68D31A41F2C4
:102BEC008832934201D9032353E02D4B5B6803F0E9
:102BFC000C027B685B689B009A42EBD1274B1B68ED
:102C0C0003F007033A689A4210D2244B1B6823F056
:102C1C00070222493B6813430B60204B1B6803F0EF
:102C2C0007033A689A4201D0012332E07B681B68A3
:102C3C0003F00403002B08D0194B5B6823F4E0620B
:102C4C007B68DB68164913434B607B681B6803F099
:102C5C000803002B09D0124B5B6823F460527B688D
:102C6C001B69DB000E4913434B6000F021F8024650
:102C7C000B4B5B681B0903F00F030A49CB5C22FA70
:102C8C0003F3094A1360094B1B681846FFF78AF9CE
:102C9C00002318461037BD4680BD00BF00200240FF
:102CAC0000100240C8350008940000209800002055
:102CBC0080B487B000AF0023FB600023BB6000230F
:102CCC007B6100237B6000233B611E4B5B68FB60D8
:102CDC00FB6803F00C03042B02D0082B03D027E075
:102CEC00194B3B6127E0FB689B0C03F00F03174A61
:102CFC00D35C7B60FB6803F48033002B10D0114B4A
:102D0C005B685B0C03F00103114AD35CBB607B680E
:102D1C000D4A02FB03F2BB68B2FBF3F37B6104E0E8
:102D2C007B680C4A02FB03F37B617B693B6102E02D
:102D3C00054B3B6100BF3B6918461C37BD4680BC48
:102D4C00704700BF0010024000127A00D83500080E
:102D5C00E835000800093D0080B485B000AF78600C
:102D6C000A4B1B680A4AA2FB03235B0A7A6802FB24
:102D7C0003F3FB6000BFFB685A1EFA60002BF9D10D
:102D8C0000BF00BF1437BD4680BC704794000020C4
:102D9C00D34D621080B582B000AF78607B68002B99
:102DAC0001D1012341E07B6893F83D30DBB2002B6D
:102DBC0006D17B68002283F83C207868FDF75CFF25
:102DCC007B68022283F83D207B681A687B68043399
:102DDC001946104600F056FA7B68012283F846200B
:102DEC007B68012283F83E207B68012283F83F2018
:102DFC007B68012283F840207B68012283F8412004
:102E0C007B68012283F842207B68012283F84320EF
:102E1C007B68012283F844207B68012283F84520DB
:102E2C007B68012283F83D20002318460837BD46F5
:102E3C0080BD000080B485B000AF78607B6893F8EB
:102E4C003D30DBB2012B01D0012335E07B6802223F
:102E5C0083F83D207B681B68DA687B681B6842F04E
:102E6C000102DA607B681B68164A934209D07B68C2
:102E7C001B68B3F1804F04D07B681B68124A9342E5
:102E8C0011D17B681B689B6803F00703FB60FB6830
:102E9C00062B10D07B681B681A687B681B6842F095
:102EAC0001021A6007E07B681B681A687B681B6864
:102EBC0042F001021A60002318461437BD4680BC4C
:102ECC00704700BF002C01400004004080B584B066
:102EDC0000AF78607B681B68DB68FB607B681B68F5
:102EEC001B69BB60BB6803F00203002B20D0FB689E
:102EFC0003F00203002B1BD07B681B686FF00202EF
:102F0C001A617B6801221A777B681B689B6903F046
:102F1C000303002B03D0786800F098F905E078687B
:102F2C0000F08BF9786800F09AF97B6800221A7728
:102F3C00BB6803F00403002B20D0FB6803F00403F0
:102F4C00002B1BD07B681B686FF004021A617B6836
:102F5C0002221A777B681B689B6903F44073002B71
:102F6C0003D0786800F072F905E0786800F065F934
:102F7C00786800F074F97B6800221A77BB6803F05C
:102F8C000803002B20D0FB6803F00803002B1BD098
:102F9C007B681B686FF008021A617B6804221A7741
:102FAC007B681B68DB6903F00303002B03D0786894
:102FBC0000F04CF905E0786800F03FF9786800F013
:102FCC004EF97B6800221A77BB6803F01003002BC4
:102FDC0020D0FB6803F01003002B1BD07B681B6810
:102FEC006FF010021A617B6808221A777B681B68E5
:102FFC00DB6903F44073002B03D0786800F026F9EA
:10300C0005E0786800F019F9786800F028F97B6819
:10301C0000221A77BB6803F00103002B0CD0FB686D
:10302C0003F00103002B07D07B681B686FF00102D3
:10303C001A617868FDF780FDBB6803F08003002BF4
:10304C000CD0FB6803F08003002B07D07B681B6857
:10305C006FF080021A61786800F06FFABB6803F0B9
:10306C004003002B0CD0FB6803F04003002B07D06F
:10307C007B681B686FF040021A61786800F0F8F802
:10308C00BB6803F02003002B0CD0FB6803F020037B
:10309C00002B07D07B681B686FF020021A617868E0
:1030AC0000F042FA00BF1037BD4680BD80B584B039
:1030BC0000AF786039600023FB737B6893F83C3079
:1030CC00012B01D10223B4E07B68012283F83C2060
:1030DC007B68022283F83D207B681B689B68BB6081
:1030EC00BB6823F07703BB60BB6823F47F43BB60F2
:1030FC007B681B68BA689A603B681B68B3F5005F15
:10310C003ED0B3F5005F00F28780B3F5805F00F02E
:10311C008680B3F5805F7FD8702B1AD0702B7BD84C
:10312C00602B50D0602B77D8502B3CD0502B73D8C1
:10313C00402B58D0402B6FD8302B64D0302B6BD811
:10314C00202B60D0202B67D8002B5CD0102B5AD0B2
:10315C0062E07B6818683B6899683B685A683B6812
:10316C00DB6800F06AF97B681B689B68BB60BB6816
:10317C0043F07703BB607B681B68BA689A604FE0CA
:10318C007B6818683B6899683B685A683B68DB68E1
:10319C0000F053F97B681B689A687B681B6842F4E3
:1031AC0080429A603CE07B6818683B6859683B68D1
:1031BC00DB681A4600F0CAF87B681B685021184679
:1031CC0000F021F92CE07B6818683B6859683B6873
:1031DC00DB681A4600F0E8F87B681B68602118462B
:1031EC0000F011F91CE07B6818683B6859683B6873
:1031FC00DB681A4600F0AAF87B681B684021184669
:10320C0000F001F90CE07B681A683B681B681946F2
:10321C00104600F0F8F803E00123FB7300E000BF58
:10322C007B68012283F83D207B68002283F83C20D8
:10323C00FB7B18461037BD4680BD80B483B000AF11
:10324C00786000BF0C37BD4680BC704780B483B03B
:10325C0000AF786000BF0C37BD4680BC704780B4AF
:10326C0083B000AF786000BF0C37BD4680BC7047A0
:10327C0080B483B000AF786000BF0C37BD4680BC13
:10328C007047000080B485B000AF786039607B680F
:10329C001B68FB607B682B4A934207D07B68B3F1B9
:1032AC00804F03D07B68284A934208D1FB6823F0F7
:1032BC007003FB603B685B68FA681343FB607B68D8
:1032CC00204A934207D07B68B3F1804F03D07B68D0
:1032DC001D4A934208D1FB6823F44073FB603B68A2
:1032EC00DB68FA681343FB60FB6823F080023B68E1
:1032FC005B691343FB607B68FA681A603B689A68E9
:10330C007B68DA623B681A687B689A627B680D4A54
:10331C00934203D13B681A697B681A637B6801226C
:10332C005A617B681B6903F00103002B05D07B6895
:10333C001B6923F001027B681A6100BF1437BD467C
:10334C0080BC7047002C01400004004080B487B062
:10335C0000AFF860B9607A60FB681B6A7B61FB6840
:10336C001B6A23F00102FB681A62FB689B693B61D4
:10337C003B6923F0F0033B617B681B013A69134303
:10338C003B617B6923F00A037B617A69BB68134359
:10339C007B61FB683A699A61FB687A691A6200BFC3
:1033AC001C37BD4680BC704780B487B000AFF86056
:1033BC00B9607A60FB681B6A7B61FB681B6A23F04F
:1033CC001002FB681A62FB689B693B613B6923F442
:1033DC0070433B617B681B033A6913433B617B6918
:1033EC0023F0A0037B61BB681B017A6913437B61EB
:1033FC00FB683A699A61FB687A691A6200BF1C37EC
:10340C00BD4680BC704780B485B000AF7860396031
:10341C007B689B68FB60FB6823F07003FB603A6879
:10342C00FB68134343F00703FB607B68FA689A6000
:10343C0000BF1437BD4680BC704780B487B000AF66
:10344C00F860B9607A603B60FB689B687B617B6964
:10345C0023F47F437B613B681A027B681A43BB6889
:10346C0013437A6913437B61FB687A699A6000BFE6
:10347C001C37BD4680BC704780B485B000AF786007
:10348C0039607B6893F83C30012B01D1022341E079
:10349C007B68012283F83C207B68022283F83D2064
:1034AC007B681B685B68FB607B681B689B68BB6008
:1034BC00FB6823F07003FB603B681B68FA681343DE
:1034CC00FB607B681B68FA685A607B681B68144A4F
:1034DC00934209D07B681B68B3F1804F04D07B68A2
:1034EC001B68104A93420CD1BB6823F08003BB606D
:1034FC003B685B68BA681343BB607B681B68BA683F
:10350C009A607B68012283F83D207B68002283F857
:10351C003C20002318461437BD4680BC704700BFC2
:10352C00002C01400004004080B483B000AF7860F0
:10353C0000BF0C37BD4680BC704780B483B000AF71
:10354C00786000BF0C37BD4680BC704770B5002654
:10355C000C4D0D4C641BA410A64209D100F022F8AE
:10356C0000260A4D0A4C641BA410A64205D170BD5E
:10357C0055F8043B98470136EEE755F8043B98475D
:10358C000136F2E7EC350008EC350008EC350008A4
:10359C00F035000803460244934200D1704703F80B
:1035AC00011BF9E7F8B500BFF8BC08BC9E46704794
:0C35BC00F8B500BFF8BC08BC9E46704784
:1035C80000000000000000000102030406070809CB
:1035D80002030405060708090A0B0C0D0E0F10104C
:0435E80001020000DC
:0435EC0031010008A1
:0435F0000D010008C1
:1035F40001000000010000000100000001000000C3
:10360400F40100000000000000000000000C014074
:103614000010000001000000010000000100000093
:1036240001000000F40100000000000000000000A0
:10363400000C014000200000010000000100000017
:103644000100000001000000F4010000000000007F
:1036540000000000000C01400040000000000000D9
:103664000500000000000000030000000F0000003F
:10367400030000000C000000050000000200000030
:103684000300000000127A00100000000100000096
:0400000508001F3997
:00000001FF
